:100000002BC045C0F9C3A6C342C041C040C03FC0D9
:100010003EC03DC03CC054C33AC039C038C011C511
:1000200059C400003900360000003A0037000000D3
:100030003B0038000101010101010101020202023D
:1000400001020408102040800402010800000000A2
:10005000000403020100000011241FBECFE5D2E01E
:10006000DEBFCDBF10E0A0E6B0E0E8EBFEE002C0EE
:1000700005900D92A23AB107D9F720E0A2EAB0E0CC
:1000800001C01D92A53EB207E1F722D513C7B8CF34
:100090008091E400882339F02091E30082131CC092
:1000A0008FEF9FEF08959091E2008091E100891B0E
:1000B0008F70B1F39091E2008091E1009817E1F325
:1000C000E091E200EF5FEF70E093E200F0E0EE55C8
:1000D000FF4F808190E00895E22FF0E0EE55FF4F52
:1000E000808190E02F5F2093E30008950895813090
:1000F00021F480B78F7780BF0895823019F480B7DC
:100100008F7DF9CF833021F48FB58F778FBD089520
:100110008430E9F78FB58F7DF9CFCF93DF93ECE48F
:10012000F0E08491E0E4F0E0D491E4E3F0E0C49105
:10013000CC2391F08111DBDFEC2FF0E0EE0FFF1FFD
:10014000E25DFF4FA591B4918FB7F8949C91ED2F8C
:10015000E095E923EC938FBFDF91CF910895CF9382
:10016000DF9390E0FC01E05CFF4F24918C5C9F4F9B
:10017000FC0184918823C9F090E0880F991FFC014D
:10018000E85DFF4FA591B491FC01E25DFF4FC59181
:10019000D49161110DC09FB7F8948C912095822362
:1001A0008C938881282328839FBFDF91CF91089566
:1001B000623051F49FB7F8943C91822F809583234D
:1001C0008C93E8812E2BEFCF8FB7F894EC912E2BE8
:1001D0002C938FBFEACF2FB7F8946091D200709123
:1001E000D3008091D4009091D5002FBF089599B38A
:1001F00046B38091C20092FB992790F9880F880F2F
:10020000892B242F217030E0220F331F822B809303
:10021000C2008091C2008B34A1F18091C200843B66
:1002200081F18091C2008D3261F18091C200823DE6
:1002300041F18091C200873809F059C08091910046
:1002400090919200019790939200809391008091F9
:100250009E0090919F00892B71F080919100909168
:10026000920097FF08C080919E0090919F0090930C
:100270009200809391008091930090919400019757
:1002800023C08091910090919200019690939200EA
:100290008093910080919E0090919F00892B79F02E
:1002A000209191003091920080919E0090919F004A
:1002B0002817390724F01092920010929100809133
:1002C00093009091940001969093940080939300F2
:1002D00080918D00816080938D007DDF6093DD00D3
:1002E0007093DE008093DF009093E0000FC0809158
:1002F000C200883709F4A2CF8091C2008E3109F480
:100300009DCF8091C200813E09F498CF089529B312
:1003100096B38091C30092FB992790F9880F880FBC
:10032000892B022E000C330B2227330F221F332779
:10033000220F331F822B8093C3008091C3008B3424
:10034000A1F18091C300843B81F18091C3008D3283
:1003500061F18091C300823D41F18091C3008738F3
:1003600009F059C080919500909196000197909363
:1003700096008093950080919E0090919F00892B1C
:1003800071F0809195009091960097FF08C0809140
:100390009E0090919F00909396008093950080918D
:1003A000970090919800019723C0809195009091BB
:1003B00096000196909396008093950080919E0000
:1003C00090919F00892B79F02091950030919600B3
:1003D00080919E0090919F002817390724F0109279
:1003E0009600109295008091970090919800019648
:1003F000909398008093970080918D008160809306
:100400008D00E9DE6093DD007093DE008093DF00F5
:100410009093E0000FC08091C300883709F4A2CF09
:100420008091C3008E3109F49DCF8091C300813E3D
:1004300009F498CF08951092E2001092E100109212
:10044000C7001092C8008093CB001092CA0010928F
:10045000C9001092C6001092C500DC9ADE9AD49AA8
:10046000D69888EA8DB980EF8EB908950F931F93BF
:100470008091DD009091DE00A091DF00B091E0005E
:10048000892B8A2B8B2B79F0A6DE0091DD00109151
:10049000DE002091DF003091E000601B710B709353
:1004A0009A00609399008091C40044E150E0481B99
:1004B00051096091C40070E030E020E0421753071A
:1004C00001F19091C8008091C7009F5F891B8F70D8
:1004D000A9F08091C8008F5F8F709091C700891735
:1004E000E1F3E82FF0E0EE54FF4FDB01A20FB31F62
:1004F000A457BF4F9C9190838093C8002F5F3F4FBC
:10050000DDCF1F910F910895FF920F931F93CF930B
:10051000DF938C01BDDD8093C400F12C01501109E3
:10052000CF2DD0E0C017D10784F5B2DD2091C400F3
:100530002C0F3D2F311D2431310528F5A091C40029
:10054000E091C400EC0FFD2FF11DE457FF4FAC0FFD
:10055000BD2FB11DA05ABF4F9C9190952081922331
:1005600090839091C400E091C400EC0FFD2FF11D29
:10057000E457FF4FC90FD11DC05ADF4F9881982310
:100580008081892B8083F394CBCF8091A00082302F
:1005900059F480918D0080FD07C0BFDD60E080E0F0
:1005A000DEDD81E08093A00081E08093DC00DF91BC
:1005B000CF911F910F91FF900895CF93DF93D4981F
:1005C000D6981DB880EF8EB9E5E5F0E08491E9E4B6
:1005D000F0E0D491EDE3F0E0C491CC23F9F0811187
:1005E00086DDEC2FF0E0EE0FFF1FEE5DFF4FA591D3
:1005F000B491EC91ED2391F080919D001CDF84E893
:1006000092E09093C6008093C50086E392E09093B9
:10061000CA008093C900DF91CF91089584E7EECF9F
:10062000FF920F931F93CF93DF938C01EB01F88020
:100630002BD4F81619F06F2DC8012ED4CE01DF91FE
:10064000CF911F910F91FF9008950F931F93CF9318
:10065000DF938C01EB0118D48883C801019614D470
:100660008983CE01DF91CF911F910F910895FF9261
:100670000F931F93CF93DF93EC018B01FB01F0806D
:1006800003D4F81619F06F2DCE0106D4F801F180CD
:100690002196CE01F9D3F81619F06F2DCE01FCD3B7
:1006A000C801DF91CF911F910F91FF900895CF93D3
:1006B000DF93EB01E9D38883CE01DF91CF910895D9
:1006C0001F920F920FB60F9211242F933F938F9387
:1006D0009F93AF93BF938091D2009091D300A0914C
:1006E000D400B091D5003091D10026E0230F2D37F2
:1006F00068F129E8230F0396A11DB11D2093D100B5
:100700008093D2009093D300A093D400B093D500EF
:100710008091CD009091CE00A091CF00B091D000FB
:100720000196A11DB11D8093CD009093CE00A093A2
:10073000CF00B093D000BF91AF919F918F913F9127
:100740002F910F900FBE0F901F9018950296A11D2C
:10075000B11DD4CF1F920F920FB60F9211242F9379
:100760003F934F935F936F937F938F939F93AF9339
:10077000BF93CF93EF93FF9396B38091D700C0912F
:10078000DB00C923282F2095C2232091D900822382
:10079000292F20958223C82B9093D700C0FF05C036
:1007A000E0918A00F0918B000995C1FF05C0E091AE
:1007B0008000F09181000995C2FF05C0E09184009E
:1007C000F09185000995C3FF05C0E0918200F0918A
:1007D00083000995FF91EF91CF91BF91AF919F91C8
:1007E0008F917F916F915F914F913F912F910F90DA
:1007F0000FBE0F901F9018951F920F920FB60F9279
:1008000011242F933F934F935F936F937F938F9315
:100810009F93AF93BF93CF93EF93FF9399B380913F
:10082000D600C091DA00C923282F2095C223209139
:10083000D8008223292F20958223C82B9093D6009D
:10084000C0FF05C0E0917400F09175000995C1FFEB
:1008500005C0E0917600F09177000995C2FF05C0D0
:10086000E0918800F09189000995C3FF05C0E091EF
:100870007800F09179000995C4FF05C0E0917A00F5
:10088000F0917B000995C5FF05C0E0917C00F091D7
:100890007D000995C6FF05C0E0917E00F0917F00C4
:1008A0000995C7FF05C0E0918600F0918700099582
:1008B000FF91EF91CF91BF91AF919F918F917F91D8
:1008C0006F915F914F913F912F910F900FBE0F90BD
:1008D0001F9018951F920F920FB60F9211242F930D
:1008E0003F934F935F936F937F938F939F93AF93B8
:1008F000BF93CF93EF93FF938091CC00823009F4A4
:1009000074C0B8F4882389F1813009F454C0FF9190
:10091000EF91CF91BF91AF919F918F917F916F9107
:100920005F914F913F912F910F900FBE0F901F90AD
:100930001895843009F45FC0B8F1853041F784E040
:100940008093CC009FB18091E1008F5F8F702091E8
:10095000E200281709F473C08093E100E091E10000
:10096000F0E0EE55FF4F908319C08FB1882331F02E
:100970008FB186959091CB00891319C0789B12C0D6
:10098000E091C900F091CA00309729F08091C80029
:100990008093C700099581E08093CC001FB8D69A58
:1009A0008EE721C084E0F8CF8FB1882321F0D6985C
:1009B00088EA8DB917C08091C7009091C800981738
:1009C000B1F38091C7008F5F8F708093C700E09173
:1009D000C700F0E0EE54FF4F80818FB982E0809332
:1009E000CC00D69A80E78EB992CF83E08093CC007A
:1009F000D6981FB8D5CF85E08093CC00D69880E7F5
:100A00008EB9E091C500F091C600309709F47FCF10
:100A1000C091E1008091E2008C1709F478CF8EB18B
:100A20008E7AE9F3759B73CF9091E2008091E1009B
:100A3000891B8F7090E00995C093E20068CFD6982B
:100A4000AFCF1F920F920FB60F9211242F933F93A7
:100A50004F935F936F937F938F939F93AF93BF93C6
:100A6000CF93EF93FF93E091C500F091C6003097CC
:100A700081F0C091E1008091E2008C1751F09091DB
:100A8000E2008091E100891B8F7090E00995C0938E
:100A9000E2001092CC00D698CC9B18C0CE9BFCCF25
:100AA00088EA8DB980EF8EB9FF91EF91CF91BF9118
:100AB000AF919F918F917F916F915F914F913F91F6
:100AC0002F910F900FBE0F901F90189588EFE9CFD0
:100AD000CF93DF93CDB7DEB728970FB6F894DEBF7C
:100AE0000FBECDBF81B781BF789480B7826080BFD1
:100AF00080B7816080BF83B7887F836083BF78942D
:100B000089B7816089BF8EB5887F8EBD8FB58160C2
:100B10008FBD8FB58D7F8FBD8EB5877F8EBD8EB516
:100B20008F7E8EBD8EB583608EBD86B188778668D8
:100B300086B9379A62E089E012DB60E088E00FDB7B
:100B400060E087E00CDB60E082E009DB60E08AE0E7
:100B500006DB60E080E003DB16B884E885BF80E850
:100B600085BF85B7877E85BF85B7806285BF90E0EA
:100B700080E08AD180939D0080919D008F3F41F459
:100B800083E780939D0060919D0090E080E084D198
:100B900080919D00883020F080919D00883740F042
:100BA00083E780939D0060919D0090E080E074D188
:100BB00081E090E069D180939000809190008F3F18
:100BC00041F483E0809390006091900081E090E098
:100BD00063D16BE970E082E090E037DDFC01808159
:100BE000918180919B0090919C00019691F48AEFF5
:100BF00090E090939C0080939B0080919B0090914B
:100C00009C009A838983BE016F5F7F4F82E090E0F2
:100C10002EDD6EE970E084E090E017DDFC0180815C
:100C2000918180919E0090919F00019681F4109295
:100C30009F0010929E0080919E0090919F009A8349
:100C40008983BE016F5F7F4F84E090E010DD47EF46
:100C500050E050938B0040938A009091DB00892FE5
:100C600081608093DB008091D900282F2160209340
:100C7000D90026B32093D70020B5216020BD2BB723
:100C800020622BBF50938900409388002091DA00A6
:100C900024602093DA002091D80024602093D800AB
:100CA00029B32093D600929A2BB720612BBF47E837
:100CB00051E050938700409386002091DA0020682D
:100CC0002093DA002091D80020682093D80029B31F
:100CD0002093D600979A2BB720612BBF50938500A5
:100CE0004093840095609093DB0085608093D900E9
:100CF00086B38093D70080B5846080BD8BB7806257
:100D00008BBF1092DD001092DE001092DF00109277
:100D1000E00053DC12E003E78091A000813029F568
:100D200080918D0080FF21C08091900080FF1DC0C8
:100D300052DAC090DD00D090DE00E090DF00F0904D
:100D4000E00020919B0030919C00AB01BC014C194C
:100D50005D096E097F09C901B0E0A0E0841795071D
:100D6000A607B70710F41092A0008091A00081118F
:100D700005C061E0F4D9D1D91093A0008091DC00C6
:100D8000813009F079C01092DC0080919D0088309C
:100D900020F080919D00883710F000939D00BE01E7
:100DA000685F7F4F90E080E082DC90919D008885B5
:100DB000981751F080919D008983BE016F5F7F4F2E
:100DC00090E080E02DDCF9DBBE01695F7F4F81E0C0
:100DD00090E06DDC909190008F81981749F08091A0
:100DE00090008983BE016F5F7F4F81E090E018DC47
:100DF000BE016B5F7F4F82E090E027DC20919B007B
:100E000030919C008D819E812817390761F0809177
:100E10009B0090919C009A838983BE016F5F7F4FF6
:100E200082E090E024DC8091990090919A00892BD7
:100E300041F41092DD001092DE001092DF0010925B
:100E4000E000BE016D5F7F4F84E090E0FEDB20910B
:100E50009E0030919F008B819C812817390761F09B
:100E600080919E0090919F009A838983BE016F5F5D
:100E70007F4F84E090E0FBDB85B7806285BF88957B
:100E800085B78F7D85BF48CFE199FECF9FBB8EBBD5
:100E9000E09A99278DB30895262FE199FECF1CBAC9
:100EA0009FBB8EBB2DBB0FB6F894E29AE19A0FBEA2
:080EB00001960895F894FFCFAC
:100EB8000001000001FFFFFFFFFFFFFFFFFFFFFF33
:100EC800FFFFFFFF7600760076007600760076005A
:100ED8007600760076007600760076005C000102E7
:100EE8000300000000000000000000FA007300008A
:020EF8000100F7
:00000001FF
